:100000000C9477010C949F010C949F010C949F0118
:100010000C949F010C949F010C949F010C949F01E0
:100020000C949F010C949F010C947D0E0C94350F41
:100030000C949F010C949F010C949F010C949F01C0
:100040000C949F010C949F010C949F010C949F01B0
:100050000C949F010C949F010C949F010C94F71336
:100060000C949F010C949F010C949F010C949F0190
:100070000C949F010C949F010C949F010C949F0180
:100080000C949F010C949F010C949F010C949F0170
:100090000C94BC020C949F010C949F010C949F0142
:1000A0000C949F010C949F010C949F010D0912095F
:1000B000170921092B0975097509750935093F09C2
:1000C00049095309600975096809850A8E0A3A0BBE
:1000D0003A0B3A0B3A0B3A0B3A0B3A0B3A0B3A0BF8
:1000E0003A0B3A0B3A0B3A0B3A0B3A0B3A0B3A0BE8
:1000F0003A0B3A0B3A0B3A0B3A0B3A0B1D0A390AF8
:10010000DB0AF60AC4093A0B3A0B3A0BEF09820AEA
:100110003A0B010B3A0B3A0B3A0B3A0BE1093A0B4B
:100120003A0B3A0B3A0BA409060A3A0B3A0B3A0B74
:10013000950A3A0B9C0A3A0B3A0B3A0B1A0A300A08
:10014000B109790AB909BC093A0B3A0BB609B10AE7
:100150003A0B350B800A3A0BD30AD50AD409570A51
:100160005C0AD90ACA0A3A0B030ADE09D70AE70A67
:10017000A30A3A0BAA0A8B118E117D1181118711E6
:10018000AF11AF11AF11921196119A11A011A411D4
:10019000AF11AA11080B00020202010009040000BD
:1001A00001020200000524001001052401010104E0
:1001B00024020605240600010705810310004009FA
:1001C000040100020A0000000705020240000007C7
:1001D0000583024000000403090412010002EF023B
:1001E0000140412336800001010203014172647520
:1001F000696E6F204C4C430041726475696E6F20CC
:100200004C656F6E6172646F00070605040100089B
:100210000A0B0C0D0900000000240027002A002D05
:1002200000300000000000250028002B002E0031C7
:1002300000000000002300260029002C002F0004ED
:10024000040404040304050202020204030202027D
:100250000206060606060604040202020404040856
:1002600002011040804010204080408008020401BC
:10027000804020100201108010204040200000002B
:100280000200090F0000030401000C000000000040
:10029000000000000000000000000000050109044B
:1002A000A1018506050919012920150025017501FF
:1002B000952081020501A100093009310933093473
:1002C00016008026FF7F75109504810209320935DA
:1002D0001580257F750895028102C005010939093D
:1002E0003915012508950275048102C0561C112498
:1002F0001FBECFEFDAE0DEBFCDBF11E0A0E0B1E07E
:10030000E4E0FBE302C005900D92AC3BB107D9F7E6
:1003100024E0ACEBB1E001C01D92A831B207E1F7D7
:1003200011E0C7E7D1E004C02197FE010E94611DE2
:10033000C637D107C9F70E9441140C94801D0C9454
:10034000000085ED8093BC008091BC0084FDFCCF53
:100350001092120308954091C102262F30E0240F1D
:10036000311D21323105DCF4209112032430C9F40F
:10037000FC0180E090E0861758F43091C102219191
:10038000DC01AF55BD4FA30FB11D2C930196F3CFE8
:100390008091C102680F6093C10280E0089581E0FE
:1003A000089582E00895089508950895E091EB027C
:1003B0008091EA02E81730F4F0E0EF57FD4F8081BA
:1003C00090E008958FEF9FEF08959091EB02809158
:1003D000EA02981750F4E92FF0E0EF57FD4F208123
:1003E00030E09F5F9093EB0202C02FEF3FEFC90117
:1003F00008958091EA0290E02091EB02821B91091E
:100400000895CF92DF92EF92FF920F931F93CF93B5
:10041000DF937C01CB018A0120911303222389F011
:10042000EB016B01C40ED51ECC15DD0569F0699199
:10043000D701ED91FC910190F081E02DC701099564
:10044000F3CF642F0E94AB01C801DF91CF911F91C0
:100450000F91FF90EF90DF90CF900895CF93DF93AF
:100460001F92CDB7DEB76983209113032223D1F009
:1004700020913503203240F021E030E0FC0133834D
:10048000228380E090E015C080911403E82FF0E013
:10049000EB5EFC4F998190838F5F80931403809370
:1004A000350305C061E0CE0101960E94AB0181E0F9
:1004B00090E00F90DF91CF910895089580E090E053
:1004C0000895682F80E10E94F51260E08FE00E949D
:1004D000F51261E08FE00C94F5120F931F93CF9308
:1004E000082F60E088E00E94F51281E00E9461021E
:1004F000C8E010E0C150C8010C2E02C09595879548
:100500000A94E2F781700E946102C111F3CF61E0A9
:1005100088E0CF911F910F910C94F5120F931F93C8
:10052000CF93082F60E088E00E94F51280E00E94DF
:100530006102C8E010E0C150C8010C2E02C09595C0
:1005400087950A94E2F781700E946102C111F3CF8E
:1005500061E088E0CF911F910F910C94F512CF9339
:10056000C92F682F8BE793E00E94480C6C2F8BE714
:1005700093E0CF910C94480C1F920F920FB60F92FC
:1005800011242F933F934F935F936F937F938F9398
:100590009F93AF93BF93EF93FF938091B900887FB0
:1005A000803609F49CC068F5883209F45BC090F489
:1005B000803109F454C038F4882309F4F6C0883037
:1005C00009F44DC0F6C0883109F44CC0803209F4FA
:1005D0005DC0EFC0803409F468C048F4803309F48A
:1005E00055C0883309F0E5C080931003D8C080352A
:1005F00009F44FC0883509F45DC0883409F0D9C0CA
:10060000D6C0883909F4C7C0A8F4883709F467C090
:1006100038F4883609F463C0803709F460C0C9C073
:10062000883809F4B8C0803909F45FC0803809F00F
:10063000C0C05BC0803B09F486C038F4803A09F43E
:1006400066C0883A09F47FC0B4C0803C09F4A7C0F2
:10065000883C09F4A4C0883B09F48AC0AAC08091F0
:10066000ED0210C090910F0380910E03981770F562
:10067000E0910F0381E08E0F80930F03F0E0E251D1
:10068000FD4F80818093BB0085EC86C08093100372
:100690008EC0E0910F0381E08E0F80930F03809155
:1006A000BB00F0E0E251FD4F808390910F038091F9
:1006B0000E036EC0E0910F0381E08E0F80930F0355
:1006C0008091BB00F0E0E251FD4F808380911103E7
:1006D00081116DC081E08093EC0284EA61C083E007
:1006E000809312031092E302CFCF8091E302803215
:1006F00008F051C0E091E30281E08E0F8093E302A5
:100700008091BB00F0E0ED53FD4F8083BDCF85ECC1
:100710008093BC00109212038091E302803230F487
:10072000E091E302F0E0ED53FD4F10826091E302AF
:1007300070E0E091E602F091E70283EC92E0099527
:100740001092E30236C084E0809312031092C2023A
:100750001092C102E091E802F091E90209958091BE
:10076000C102811105C081E08093C1021092A102F3
:10077000E091C20281E08E0F8093C202F0E0EF555B
:10078000FD4F80818093BB009091C2028091C10295
:10079000981708F479CF85E88093BC000AC085ECEF
:1007A0008093BC001092120304C0109210030E94A8
:1007B000A101FF91EF91BF91AF919F918F917F9197
:1007C0006F915F914F913F912F910F900FBE0F90BE
:1007D0001F90189561E080E10E94241361E08FE092
:1007E0000E94241361E088E00E94241361E086E007
:1007F0000E94241360E086E00E94F5126AE070E037
:1008000080E090E00E948B1361E086E00E94F51288
:100810006AE070E080E090E00E948B1389EB0E9418
:100820008E028FEF0E946D0283E80E946D0283E6C4
:100830000E946D0281EB0E948E0281E80E946D028F
:1008400080E30E946D0288E00E946D0286E30E94B0
:100850006D0281E00E946D0283E10E946D0280E1E1
:100860000E946D0280E10E946D0285E30E946D028C
:100870008DE30E946D028AE10E946D028AE10E946E
:100880006D028AE30E948E0280E60E946D0286E37A
:100890000E948E028AE00E946D028FEB0E948E02FF
:1008A00080E00E946D0280E10E946D0283EB0E9455
:1008B0008E0281E00E946D0284EB0E948E0281E034
:1008C0000E946D0282E10E946D0282E70E946D0229
:1008D00082E10E946D0286E00E946D0283E00E9428
:1008E0006D0284E50E946D0283E00E946D028EE439
:1008F0000E946D0280E00E946D0280E00E946D0205
:1009000086EB0E948E0283E30E946D028CEC0E94B3
:100910008E0282E00E946D0268E770E080E090E065
:100920000E948B1380EE0E948E0281E00E946D0275
:1009300087E00E946D028CE40E946D0280EB0E94B1
:100940006D0286E30E946D028FE30E946D0286E0D5
:100950000E946D0289E40E946D0281E50E946D0291
:1009600086E90E946D0288E10E946D0288ED0E9476
:100970006D0288E10E946D0280E50E946D0283E1B4
:100980000E946D0281E00E946D0287E00E946D026C
:100990008CE40E946D0280EB0E946D0286E30E944F
:1009A0006D028FE30E946D0286E00E946D0289E471
:1009B0000E946D0281E50E946D0286E90E946D022F
:1009C00088E10E946D0288ED0E946D0288E10E941C
:1009D0006D0280E50E946D0283E10E946D0266E96E
:1009E00070E080E090E00E948B1381E10E948E0213
:1009F00068EC70E080E090E00E948B1389E20C9438
:100A00008E028F929F92AF92BF92CF92DF92EF921F
:100A1000FF920F931F93CF93DF93CDB7DEB7E89785
:100A20000FB6F894DEBF0FBECDBF80E2EDE4F1E07B
:100A3000DE01119601900D928A95E1F780911203E3
:100A40008111FCCF81E080931203809311039FEF0B
:100A50009093100310920F0380930E038093ED0286
:100A60008091ED0288648093ED028091EC028130E8
:100A700061F41092EC028091ED028093BB008091B2
:100A8000BC0083FDF8CF85EC01C085EE8093BC00EF
:100A9000809112038130E1F380910F03823018F4CA
:100AA00090910F0301C092E0AEEEB2E0E1E8F2E017
:100AB00080E0891721F02D9121938F5FFACF10925A
:100AC000EB028093EA02F12C9091EA028091EB0212
:100AD000981709F185EF93E00E94E5018095E1E226
:100AE000F0E0EC0FFD1F48E0F49EE00DF11D112435
:100AF00020E030E090E0AC01022E02C05595479511
:100B00000A94E2F7417041932F5F3F4F283031053F
:100B100091F7F394D9CFFE01319680E090E0DC01AB
:100B2000AA5CBC4F2C9130E038AF2FAB9EAB8DABA5
:100B3000ADA9BEA921913191BD016F587D4FA1E2B0
:100B4000B0E0AC0FBD1F2A0F3B1FD9012C91DB0178
:100B50002C9301968031910511F70E94C51369AB62
:100B60007AAB8BAB9CAB01E712E021E432E0E1E031
:100B7000F2E061E572E0CB01D8014D918D01D90120
:100B80005C91451741F0C9A8DAA8EBA8FCA8C0827F
:100B9000D182E282F382C9A8DAA8EBA8FCA88080FF
:100BA0009180A280B380C818D908EA08FB08B1E593
:100BB000CB16D104E104F10454F0C9A8DAA8EBA8DB
:100BC000FCA8C082D182E282F382DC014C93D9017D
:100BD0004D939D0134960196B2E001381B0761F6F2
:100BE000E1E6F2E080E090E031E0DB012D91BD0133
:100BF0004081421739F0DC01AA5CBC4F222309F482
:100C000089C03C93219301968031910571F780E072
:100C100090E0C12CD12C7601C394FC01EA5CFC4F1E
:100C20002081222381F020914803B701A601082EDC
:100C300004C0440F551F661F771F0A94D2F7422B3A
:100C40004093480311C030914803B701A601082E14
:100C500004C0440F551F661F771F0A94D2F74095B2
:100C6000242F232320934803019688309105A9F669
:100C700080E090E0C12CD12C7601C394FC01E25CB1
:100C8000FC4F3081332381F030914903B701A60135
:100C9000082E04C0440F551F661F771F0A94D2F711
:100CA000432B4093490311C030914903B701A6017A
:100CB000082E04C0440F551F661F771F0A94D2F7F1
:100CC0004095242F232320934903019688309105D2
:100CD000A9F69091480380914A03892B80934A0397
:100CE0009091490380914B03892B80934B03E896A5
:100CF0000FB6F894DEBF0FBECDBFDF91CF911F912D
:100D00000F91FF90EF90DF90CF90BF90AF909F90AA
:100D10008F9008951C9276CF0F931F93CF93DF93FC
:100D200002E011E0C0E0D0E0CE010E94D41CF80146
:100D300081938F012196C833D105B1F7DF91CF910F
:100D40001F910F9108950F931F93CF93DF9302E0AC
:100D500011E0C0E0D0E0F80161918F01CE010E9466
:100D6000DC1C2196C833D105B1F7DF91CF911F91DB
:100D70000F9108952F923F924F925F926F927F92C0
:100D80008F929F92AF92BF92CF92DF92EF92FF929B
:100D90000F931F93CF93DF93CDB7DEB760970FB656
:100DA000F894DEBF0FBECDBF109234011092350112
:100DB0001092170188E10E9460138C3F9340A4F4C5
:100DC00061E088E10E94241368EC70E080E090E02C
:100DD0000E948B1360E088E10E94241362E370E0BC
:100DE00080E090E00E948B1388E10E9460138B5F8B
:100DF00091098D3E924020F481E08093170102C05A
:100E0000109217018BE10E9460138C3F93403CF4D9
:100E10008CE10E9460138C3F93400CF45BC18BE12A
:100E20000E946013988B8F875C018CE10E94601395
:100E30008C014C01883C910538F081E08D832F8531
:100E40003889283C310508F41D8282E10E94601334
:100E50008C3F93403CF483E10E9460138C3F9340AD
:100E60000CF455C182E10E9460136C012C0183E1F6
:100E70000E9460137C011C01883C910530F081E0E8
:100E80008A8798ECC916D10408F41A860E94C51303
:100E90006B877C878D879E87F986E886DF82CE8286
:100EA0001C830B832F8538893A8329830E94C513BD
:100EB000DC01CB012B853C854D855E85821B930B28
:100EC000A40BB50B80319742A105B10508F092C083
:100ED00061E085E00E94F5124D814423F1F18BE140
:100EE0000E9460133C0161E070E080E090E00E94AD
:100EF0008B138CE10E94601329813A814F855889B8
:100F0000240F351F37FF02C02F5F3F4F5901B594A3
:100F1000A7942B813C81200F311F37FF02C02F5F28
:100F20003F4F4901959487942F853889621673063F
:100F300010F4788A6F868017910708F48C01498134
:100F40005A814615570510F47A8269822B813C81BB
:100F50002817390710F49C838B833A853323C9F112
:100F600082E10E9460133C0161E070E080E090E06B
:100F70000E948B1383E10E9460132E813F812C0D10
:100F80003D1D37FF02C02F5F3F4F29015594479405
:100F9000288439842E0C3F1C37FE03C04FEF241ADF
:100FA000340A359427946C147D0408F463018E157B
:100FB0009F0508F47C012E813F812615370510F42A
:100FC0007F826E82488559854817590710F49987A2
:100FD000888768E270E080E090E00E948B1360E018
:100FE00085E00E94F51268E270E080E090E00E94E7
:100FF0008B135CCF0819190989819A818A199B0979
:101000002F8538892A193B0930931F0120931E012F
:1010100010932101009320019093230180932201DA
:101020008B819C81881999099093250180932401D3
:10103000B0921B01A0921A0190921D0180921C0196
:101040003D8130933401E218F3088E819F81841929
:101050009509C418D508D0922B01C0922A01F092AC
:101060002D01E0922C0190932F0180932E01888511
:1010700099858219930990933101809330015092A0
:1010800027014092260130922901209228014A85A9
:101090004093350182E390E09093330180933201D5
:1010A00060960FB6F894DEBF0FBECDBFDF91CF9133
:1010B0001F910F91FF90EF90DF90CF90BF90AF9076
:1010C0009F908F907F906F905F904F903F902F9068
:1010D0000C94A30661E08BE10E94241361E08CE193
:1010E0000E94241368EC70E080E090E00E948B1373
:1010F00060E08BE10E94241360E08CE10E942413E5
:1011000062E370E080E090E00E948B1388CE61E0A3
:1011100082E10E94241361E083E10E94241368ECC1
:1011200070E080E090E00E948B1360E082E10E941A
:10113000241360E083E10E94241362E370E080E006
:1011400090E00E948B138ECE909116019536D0F4CC
:10115000811108C0963010F095500DC0992359F0B8
:10116000915009C0903630F4953010F49F5F03C061
:101170009B5F01C094E6953608F094E690931601C3
:101180000C94A3068111F6CF94E6E6CF882329F0CC
:1011900081E08093140160E003C01092140161E0CB
:1011A0008DE00E9424130C94A306CF92DF92EF925D
:1011B000FF92CF93DF93853608F084E68093120187
:1011C000A82FB0E025E13FEF4FEF5FEF0E94091D30
:1011D00024E630E040E050E00E94EA1C69017A0118
:1011E0008BEEC80ED11CE11CF11CE60161E08BE026
:1011F0000E942413209711F460E07CC0E8E8F2E03C
:10120000E4918E2F90E0FC013197EF30F10508F06A
:101210006CC0EA5AFF4F0C94611D84B5806884BD90
:10122000C7BC6BC084B5806284BDC8BC66C08091F9
:101230008000806880938000D0928900C0928800EE
:101240005CC080918000806280938000D0928B008F
:10125000C0928A0052C08091800088608093800094
:10126000D0928D00C0928C0048C080919000806820
:1012700080939000D0929900C09298003EC08091D7
:101280009000806280939000D0929B00C0929A0060
:1012900034C080919000886080939000D0929D002F
:1012A000C0929C002AC08091C00080688093C000DA
:1012B0008091C0008F7B8093C000C092CF001DC082
:1012C0008091C00080628093C000C092D00015C0A1
:1012D0008091C20088608093C2008091C2008B7FA1
:1012E0008093C200C092D20008C0C038D1050CF46F
:1012F00083CF61E08BE00E94F512DF91CF91FF90E8
:10130000EF90DF90CF900C94A3060F931F93CF9391
:10131000DF938BE793E00E946E0C181619060CF011
:10132000E0C18BE793E00E942F0E082E000C990B72
:10133000AA0BBB0BFC01B897E635F10508F09AC182
:10134000EB59FF4F0C94611D609146037091470368
:1013500080E090E04AE0DF91CF911F910F910C94D3
:101360001712809146039091470317C18091150190
:1013700005C0609116011AC080911601DF91CF91CE
:101380001F910F910C9458128BE793E00E946E0C02
:10139000019709F06FC18BE793E00E942F0E85360D
:1013A00008F421C184E61FC1609112018BE793E02C
:1013B000DF91CF911F910F910C94480C80911201F5
:1013C000DDCF8BE793E00E946E0C019709F052C1CC
:1013D0008BE793E00E942F0E0E94D50848C18BE74F
:1013E00093E00E946E0C019709F044C18BE793E0F3
:1013F0000E942F0E813321F481E0809315018BC070
:101400001092150188C080911301B8CF8BE793E04B
:101410000E946E0C019709F02DC18BE793E00E94AA
:101420002F0E813321F481E08093130174C0109258
:10143000130171C080911401A1CF8BE793E00E944A
:101440006E0C019709F016C18BE793E00E942F0EF6
:10145000813311F481E001C080E00E94C60807C119
:10146000609148038BE793E00E94480C6091490328
:101470009DCF60914A038BE793E00E94480C6091F6
:101480004B038BE793E00E94480C10924A031092A2
:101490004B030E94C51360934D0370934E038093DA
:1014A0004F039093500381E0809351031AC110922F
:1014B0004A0310924B03DBC060914C0380911301EF
:1014C0008111626080911401811164608091150125
:1014D000811168608091170181116061809119010B
:1014E0008111606280911801882309F45FCF6064E4
:1014F0005DCF9091190181E0892780931901B7C0D0
:1015000062E254CF0E94BA06B2C09091360181E0E7
:101510008927809336010E94A306A9C090913701C4
:1015200081E0892780933701F6CF9091380181E0DF
:10153000892780933801EFCF9091390181E0892785
:1015400080933901E8CF9091340181E0892780931D
:101550003401E1CF9091350181E0892780933501F5
:10156000DACF609134018091350181116260809100
:10157000360181116460809137018111686080912A
:1015800038018111606180913901882309F40ECFFF
:1015900060620CCF8BE10E946013DF91CF911F91AD
:1015A0000F910C94AF028CE1F6CF82E1F4CF83E18E
:1015B000F2CF88E1F0CF9091170181E089278093E5
:1015C0001701882309F4A7CF10921801A4CF909196
:1015D000180181E0892780931801882309F49BCFA3
:1015E0001092170182E38093160195CFC3E0D1E0FA
:1015F00002E111E089910E9458120C171D07D1F7E2
:1016000036C068EC70E080E090E00E948B1310928E
:1016100000021092FF01C1E08BE793E00E946E0C84
:1016200018161906A4F48BE793E00E942F0E81325E
:1016300019F4C093FF01F0CF90910002E92FF0E080
:10164000E154FE4F80839F5F90930002E5CF80912D
:10165000FF01882339F00091000200FF17C088EBDA
:1016600091E00EC085EB91E00BC00E94EA0382EB93
:1016700091E006C0DF91CF911F910F910C945F1202
:10168000DF91CF911F910F910C94E71160E088E0FA
:101690000E94F512CFEBD1E010E00117B1F010FF7E
:1016A00011C08881FE01319790819A339CF4905348
:1016B0009295907F8A3384F48053890F113071F4AE
:1016C0000E948E021F5F2196E8CF61E088E00E94B1
:1016D000F512CDCF9753ECCF8753EFCF0E946D0219
:1016E000F1CFDF91CF911F910F9108954091750334
:1016F000509176032091730330917403421753077E
:10170000B4F49091E8009570E1F39091E80092FDB7
:1017100019C08093F1008091750390917603019632
:101720008F739927892B19F48EEF8093E8008091AD
:1017300075039091760301969093760380937503D9
:1017400081E0089580E00895DF92EF92FF920F9379
:101750001F93CF93DF93D82EF92EE42E062F10E09F
:10176000C8010196880F0E94760B83E00E94760BD9
:10177000CD2DDF2D0C0F1D1FC017D10789F0E7FEFF
:1017800003C0FE01849101C088810E94760BF82E6F
:1017900080E00E94760B8F2121968111EDCF01C050
:1017A00081E0DF91CF911F910F91FF90EF90DF903B
:1017B0000895DF92EF92FF920F931F93CF93DF93E1
:1017C000D82E8A017B01E40EF51EEB01CE15DF0554
:1017D00071F0D7FE03C0FE01849101C088810E9490
:1017E000760B21968111F2CF8FEF9FEF01C0C801D8
:1017F000DF91CF911F910F91FF90EF90DF900895AF
:101800002FB7F89487708093E9009091E800892FB2
:10181000807295FF04C09091F20080E4891B2FBF75
:101820000895615030F02091F100FC012083019671
:10183000F8CF289884E6809379030895CF92DF92B9
:10184000EF92FF920F931F93CF93DF936C017A0176
:101850008B01C0E0D0E0CE15DF0581F0D8016D919D
:101860008D01D601ED91FC910190F081E02DC60132
:101870000995892B11F02196EECF7E01C701DF91EA
:10188000CF911F910F91FF90EF90DF90CF9008952F
:10189000CF93DF931F92CDB7DEB76983DC01ED9163
:1018A000FC910280F381E02D41E050E0BE016F5FCA
:1018B0007F4F09950F90DF91CF91089583E080933A
:1018C000E9008091F200882319F08AE38093E80010
:1018D000089583E00E94000C90E00895FC01848547
:1018E000958597FD0BC09FB7F89482E08093E9003F
:1018F0008091F2009FBF90E0019608959FB7F89401
:1019000082E08093E9008091F2009FBF90E008950B
:10191000DC01FB0112968C91129790E024813581B5
:1019200082179307D1F491818081813A31F481E06B
:10193000913091F0933089F411C0813271F49B3071
:1019400021F482811F968C9305C09A3031F48281F4
:1019500050968C9381E00895089580E00895DC010D
:10196000FB0188E4808389E4818384E482831D967B
:101970009C911D979F709F5B93831D968D919C9169
:101980001E9724E0969587952A95E1F78F708F5BD7
:10199000848385E00895EF92FF920F931F93CF9376
:1019A000DF93FB012081213851F52381223239F563
:1019B000DC0112962C9130E0448155814217530787
:1019C000F1F4EC010B851C85E12CF12C01151105BE
:1019D00091F0F801448155816281738180E80E9411
:1019E000D90B8F3FFFEF9F0769F0E80EF91ED80172
:1019F0000D911C91EBCF81E08F87C70105C080E07E
:101A000090E002C08FEF9FEFDF91CF911F910F9178
:101A1000FF90EF900895CF93DF93CDB7DEB769972E
:101A20000FB6F894DEBF0FBECDBFFC01DB018C9179
:101A30008F5F8C93BE016F5F7F4F89E1DB011D9249
:101A40008A95E9F729E0298384E08A8391E09D83E0
:101A500083E08E832A8721E22B879C879D879F873F
:101A600022E2288B27E02B8B25E02C8B8E8B20E429
:101A700030E0388F2F8B998F82818B839585868577
:101A8000998B8A8B838180688D8B49E150E080E05F
:101A90000E94D90B69960FB6F894DEBF0FBECDBF7A
:101AA000DF91CF910895FC0182818F5BFB018083E0
:101AB00081E008950E947B1D7F928F929F92AF924A
:101AC000BF92CF92DF92EF92FF920F931F93CF932B
:101AD000DF93C82E8B017A0180917A03811103C0B4
:101AE0008FEF9FEF74C08091E40280FF05C080916A
:101AF000E00082608093E000CE2DDF2DD12C8AEFB4
:101B0000B82E8C2D8770982E8C2D8072882E8C2D5F
:101B10008074782E9AE3A92E209719F4DD2009F419
:101B200051C08C2D0E94000C81110AC0BA94BB20B8
:101B3000B9F261E070E080E090E00E948B13ECCF9E
:101B4000282F30E0C217D3070CF48C2F9FB7F894DE
:101B50009092E9002091E80025FF32C0282F30E064
:101B6000C21BD30B882029F08150A0F01092F10005
:101B7000FBCFF801C7FE0AC0815050F0449140935A
:101B8000F1003196F9CF41914093F1008150D8F79F
:101B9000020F131FDD2019F0A092E8000AC0809107
:101BA000E80085FD08C0A092E800DD24D3942097CA
:101BB00039F0D12C05C0209719F47110A092E800DB
:101BC0009FBFAACF5D9884E680937803C701DF9119
:101BD000CF911F910F91FF90EF90DF90CF90BF902A
:101BE000AF909F908F907F900895CF93DF93EC01FB
:101BF00080914501882331F083E00E945C0D181626
:101C0000190634F081E090E09B838A8380E090E0C5
:101C1000DF91CF9108950F931F93CF93DF931F927E
:101C2000CDB7DEB78C01FC018485958597FF0EC08A
:101C3000CE0101960E94E911019719F4898190E083
:101C400002C08FEF9FEFF80195878487F8018485A4
:101C500095850F90DF91CF911F910F910895CF93AC
:101C6000DF931F92CDB7DEB7FC018485958597FD84
:101C700005C02FEF3FEF358724870BC0CE010196BB
:101C80000E94E911019719F4898190E002C08FEF59
:101C90009FEF0F90DF91CF910895EF92FF920F93F6
:101CA0001F93CF93DF931F92CDB7DEB78B017A01DD
:101CB0008091DC03811105C00E94641281E0809351
:101CC000DC0386E0898341E050E0BE016F5F7F4F17
:101CD0008091CE030E945C0D97FD07C08091CE03DA
:101CE000A701B80180640E945C0D0F90DF91CF9135
:101CF0001F910F91FF90EF9008951F920F920FB6D2
:101D00000F9211248F939F938091E1009091E100B5
:101D1000937F9093E10083FF0FC01092E90091E060
:101D20009093EB001092EC0092E39093ED001092F0
:101D30007A0398E09093F00082FF20C093E09093A4
:101D4000E9009091F200992319F09AE39093E8004A
:101D500090917803992339F0909178039150909362
:101D60007803992389F190917903992339F090911F
:101D70007903915090937903992341F184FF10C026
:101D80008091E2008E7E81608093E2008091E1008C
:101D90008F7E8093E1008091E4028E7E806111C08D
:101DA00080FF16C08091E2008E7E80618093E20009
:101DB0008091E1008E7E8093E1008091E4028E7E2E
:101DC00081608093E40204C05D9ACDCF289AD6CF7B
:101DD0009F918F910F900FBE0F901F90189580913B
:101DE0006B0381110DC082E08093670384E08093D0
:101DF000680310926A031092690381E080936B0379
:101E000087E693E008950F931F93CF93DF931F927C
:101E1000CDB7DEB782E0898342E450E064E971E047
:101E200080E80E94D90B0E94EF0EDC0112960D9102
:101E30001C9113970115110589F0D801ED91FC91C2
:101E40000280F381E02DBE016F5F7F4FC8010995CD
:101E500097FD04C0F80100851185ECCF89810F90B2
:101E6000DF91CF911F910F9108951F920F920FB69E
:101E70000F921124CF92DF92EF92FF920F931F9354
:101E80002F933F934F935F936F937F938F939F9382
:101E9000AF93BF93EF93FF93CF93DF93CDB7DEB7AD
:101EA0006C97DEBFCDBF1092E9008091E80083FF00
:101EB000FBC168E0CE0145960E94110C82EF809331
:101EC000E8008D8987FF05C09091E80090FFFCCF66
:101ED00003C09EEF9093E800982F907609F0C6C05B
:101EE0009E894F89588D2F89F88C91110CC08038AC
:101EF00029F48091E5028093F10002C01092F10074
:101F00001092F10045C1913051F4811141C141302D
:101F1000510509F03DC18091E5028D7F0BC09330E2
:101F200061F4811135C14130510509F031C1809111
:101F3000E50282608093E5022BC1953049F48091DF
:101F4000E80080FFFCCF822F80688093E30020C1EF
:101F5000963009F05EC00B8D1C8D22E01092E900D6
:101F60001092760310927503F21232C0109274032D
:101F7000109273030E94030F99E0BE016F5F7F4FC1
:101F8000DB01E92F1D92EA95E9F79983FA8291E046
:101F90009E8390EA98879AEF9987209175033091F4
:101FA0007603275F3F4F3C832B838D831092E9009C
:101FB00010927603109275031093740300937303C9
:101FC00049E050E080E00E94D90B0E94030FE0C07E
:101FD00010937403009373030E94EF0EDC011296BA
:101FE0000D911C9113970115110509F4BBC0D8017F
:101FF000ED91FC910480F581E02DBE016B5E7F4F79
:10200000C8010995009709F0C7C0F801008511853E
:10201000EACF973009F445C1983021F481E08093EC
:10202000F100B6C0993009F0B3C0837009F039C12E
:10203000E7E4F1E081E031E096E32081211109C07D
:102040008EE78093EA001092EA008F8980937A03EA
:102050009FC08093E9003093EB0021912093EC0026
:102060009093ED008F5F873041F7EACF8B8D9C8D89
:102070001092E90010927603109275039093740306
:1020800080937303898D811153C08E899D89913A04
:1020900049F4813209F005C147E050E06EE371E098
:1020A00080E0BBC0913209F0FCC0833269F48F89B3
:1020B000988DA0E0B0E080933A0190933B01A0930B
:1020C0003C01B0933D0164C0803269F48091E80026
:1020D00082FFFCCF67E08EE391E00E94110C8BEF52
:1020E0008093E80055C0823209F052C08F898093F6
:1020F0004501EEEFFFE7859194918B3F9C4D19F0E0
:10210000E0E0F8E002C0EEEFFAE080913E0190914D
:102110003F01A0914001B0914101803B9440A10555
:10212000B10509F09EC08091450180FF79C099C03A
:102130000E94EF0EFC01028113810115110509F4C3
:10214000B0C0D801ED91FC910190F081E02DBE016D
:102150006B5E7F4FC801099581111AC0F801008597
:102160001185EBCFF1E0FF1609F44EC0F3E0FF124A
:1021700098C08F89882309F44AC0823089F440E8E6
:1021800060E188EF91E00E94A40B882309F489C0E4
:102190008EEF8093E80088C018161906CCF381C032
:1021A000813029F440E86BE08CEE91E0ECCF833095
:1021B00009F077C00E94EF0EDC011296ED90FC90C2
:1021C00013978E010F5F1F4F6801E114F10479F03E
:1021D000D701ED91FC910680F781E02DB801C70190
:1021E0000995080F111DF701E084F184EECFD801A5
:1021F0001C92F60101900020E9F73197BF016C199C
:102200007D0940E0C601BFCF6AED71E002C066ED16
:1022100071E0FB01449150E080E80E94D90BB8CFF7
:10222000EE3F2AE0F20751F0808191818737A7E7DE
:102230009A0721F09093FF0A8093FE0A87E797E7B9
:102240009183808380916000809377039BE088E195
:102250000FB6F894A895809360000FBE909360002D
:1022600097CF808191818737974709F091CFA895C3
:1022700080916000886180936000809177038093F3
:102280006000EE3FBAE0FB0739F08091FE0A9091C2
:10229000FF0A918380837CCF1092FF0A1092FE0A7E
:1022A00077CF81E28093EB006C960FB6F894DEBF97
:1022B0000FBECDBFDF91CF91FF91EF91BF91AF9155
:1022C0009F918F917F916F915F914F913F912F914E
:1022D0001F910F91FF90EF90DF90CF900F900FBE66
:1022E0000F901F90189590E0FC013197EF30F105A9
:1022F000B0F5E554FF4F0C94611D809180008F77FD
:1023000003C0809180008F7D80938000089580912C
:102310008000877FF9CF84B58F7702C084B58F7D29
:1023200084BD0895809190008F7707C080919000C0
:102330008F7D03C080919000877F809390000895E7
:102340008091C0008F7703C08091C0008F7D809303
:10235000C00008958091C200877F8093C2000895D5
:102360003FB7F8948091060490910704A091080467
:10237000B091090426B5A89B05C02F3F19F001961E
:10238000A11DB11D3FBFBA2FA92F982F8827820FFB
:10239000911DA11DB11DBC01CD0142E0660F771F4B
:1023A000881F991F4A95D1F70895009769F0FC019D
:1023B00001900020E9F73197AF01481B590BBC0190
:1023C0008BE793E00C94F50D80E090E008950C9479
:1023D000D51120917A03211103C08FEF9FEF08954B
:1023E0005FB7F89422E02093E9002091F20030E0FA
:1023F0001216130614F421E030E0422FFC0184E6AB
:10240000415038F02898809379039091F10091938E
:10241000F7CF2115310521F08091F200882319F0C2
:102420005FBFC90108958BE68093E800F9CF8F92D2
:102430009F92AF92BF920F931F93CF93DF93CDB72D
:10244000DEB7A1970FB6F894DEBF0FBECDBF19A2BD
:10245000423008F44AE08E010F5D1F4F842E912C0C
:10246000A12CB12CA50194010E941C1DE62FB901DD
:10247000CA0101501109EA3014F4E05D01C0E95CC1
:10248000D801EC93232B242B252B61F7C8010E9444
:10249000D511A1960FB6F894DEBF0FBECDBFDF9168
:1024A000CF911F910F91BF90AF909F908F90089503
:1024B000682F70E080E090E04AE00C9417126FE320
:1024C0008BE793E00C94480C81E08093CF038093DA
:1024D000D00325ED33E03093D2032093D103109243
:1024E000D4031092D30320E831E03093CC0320933F
:1024F000CB031092D7031092D6031092D9031092F7
:10250000D8038093DA038093DB0381EC8093D503B7
:102510000E94EF0EFC0121818091CF0390E0820F99
:10252000911D0897C4F5A281B381109729F48BEC13
:1025300093E0938382830EC018968D919C91199796
:10254000009711F0DC01F8CF8BEC93E019969C9387
:102550008E93189780818093CD0381818093CE03E1
:1025600090818091D003890F808380E09091CF0388
:10257000891788F4A091D103B091D203A80FB11D9F
:102580009C91A181B0E0AA5BBE4F9C9391819F5F1B
:1025900091838F5FEBCF0895CF93DF93282F30E0A7
:1025A000F901E358FD4F8491F901E25AFD4FD491AE
:1025B000F901E15CFD4FC491CC2391F081110E949F
:1025C0007311EC2FF0E0EE0FFF1FEF5CFD4FA591B4
:1025D000B491EC91ED2381E090E021F480E002C021
:1025E00080E090E0DF91CF9108951F93CF93DF9328
:1025F000282F30E0F901E358FD4F8491F901E25AA8
:10260000FD4FD491F901E15CFD4FC491CC23C1F0A1
:10261000162F81110E947311EC2FF0E0EE0FFF1FB7
:10262000ED5DFD4FA591B4919FB7F894111104C0D1
:102630008C91D095D82302C0EC91DE2BDC939FBF08
:10264000DF91CF911F910895CF93DF9390E0FC012C
:10265000E25AFD4F2491FC01E15CFD4F84918823F7
:1026600061F190E0880F991FFC01EB5EFD4FC59171
:10267000D491FC01ED5DFD4FA591B491611109C0AC
:102680009FB7F8948881209582238883EC912E232C
:102690000BC0623061F49FB7F8948881322F309577
:1026A00083238883EC912E2B2C939FBF06C08FB77A
:1026B000F894E8812E2B28838FBFDF91CF91089566
:1026C000823108F08251E82FF0E0E75FFD4FE4919E
:1026D00080917B00E3FB222720F930E095E0220F78
:1026E000331F9A95E1F78F7D282B20937B00E770AD
:1026F000E064E0937C0080917A00806480937A00AB
:1027000080917A0086FDFCCF80917800209179003D
:1027100090E0922B08958F929F92AF92BF92CF92AA
:10272000DF92EF92FF926B017C010E94B0114B018E
:102730005C01C114D104E104F104F1F00E94B01174
:10274000DC01CB0188199909AA09BB09883E93408D
:10275000A105B10570F321E0C21AD108E108F10822
:1027600088EE880E83E0981EA11CB11CC114D10410
:10277000E104F10419F7DDCFFF90EF90DF90CF90E7
:10278000BF90AF909F908F9008952FB7F89460916D
:1027900002047091030480910404909105042FBFFA
:1027A0000895CF92DF92EF92FF92CF93DF930E9432
:1027B000C5136B017C01C3ECD0E00E9485090E9427
:1027C000C513DC01CB018C199D09AE09BF09893CF9
:1027D0009105A105B10520F4CE010197F1F7EDCFE8
:1027E000DF91CF91FF90EF90DF90CF9008951F92EF
:1027F0000F920FB60F9211242F933F938F939F93B5
:10280000AF93BF938091020490910304A0910404BC
:10281000B09105043091010423E0230F2D3720F4FB
:102820000196A11DB11D05C026E8230F0296A11D2A
:10283000B11D209301048093020490930304A0939C
:102840000404B09305048091060490910704A091BC
:102850000804B09109040196A11DB11D80930604DE
:1028600090930704A0930804B0930904BF91AF911B
:102870009F918F913F912F910F900FBE0F901F90BE
:102880001895789484B5826084BD84B5816084BDD8
:1028900085B5826085BD85B5816085BD80916E00FE
:1028A000816080936E00109281008091810082602F
:1028B000809381008091810081608093810080916C
:1028C000800081608093800080919100826080937D
:1028D000910080919100816080939100809190009F
:1028E0008160809390008091C10084608093C100DA
:1028F0008091C10082608093C1008091C10081609D
:102900008093C1008091C30081608093C300809157
:10291000C00082608093C0008091C200816080937B
:10292000C20080917A00846080937A0080917A005E
:10293000826080937A0080917A00816080937A002F
:1029400080917A00806880937A0010927A031092C6
:10295000E5021092E4028091D70081608093D70055
:1029600080EA8093D80089B5806189BD89B582608D
:1029700089BD09B400FEFDCF61E070E080E090E029
:102980000E948B138091D8008F7C80618093D80047
:102990008091E000807F8093E0008091E1008E7E56
:1029A0008093E1008DE08093E200559A209A64EFD5
:1029B00071E080E090E00E948B138FEF9FEF909387
:1029C00088038093870361E085E00E942413C4E0BC
:1029D00061E085E00E94F51262E370E080E090E043
:1029E0000E948B1360E085E00E94F51262E370E0C4
:1029F00080E090E00E948B13C15051F761E08BE0C2
:102A00000E9424130E94EA0360E087E00E942413DE
:102A100060E08BE10E94241360E08CE10E942413AB
:102A200060E082E10E94241360E083E10E942413AD
:102A300060E084E10E94241360E088E10E94241396
:102A40004DE6E42E41E0F42EA3E0B1E0F7018191E0
:102A50008D9321E0EC37F207D1F7C0E0D0E011E030
:102A6000D7010D917D012196CE010E94D41C08133F
:102A700010E0CF30D105A1F780E090E00E94D41C97
:102A8000853011F4111102C00E94A3060E948C0629
:102A90001092150110921901C1E0C09314018091A8
:102AA00012010E94D50880911301882319F0C09368
:102AB000130102C0109213010E94A30681E09091BD
:102AC0001401911101C080E00E94C6088091150197
:102AD000882321F081E08093150102C01092150136
:102AE0000E94A3061092EB021092EA0210921403C5
:102AF0001092350310921203C1E0C093110310929B
:102B0000EC0261E082E00E94F51261E083E00E9445
:102B1000F5128091B9008E7F8093B9008091B90041
:102B20008D7F8093B90088E48093B80085E480931A
:102B3000BC0083ED91E09093E9028093E80284ED7C
:102B400091E09093E7028093E602C093130384E23E
:102B500080935203109214031092350360E085EFC6
:102B600093E00E942E0290913503913208F044C008
:102B7000809112038111FCCF82E08093120381E0E7
:102B8000809311038FEF8093100310920F039093A3
:102B90000E03A5E1B3E0EEEEF2E080E0981721F03D
:102BA0002D9121938F5FFACF1092ED028091ED026B
:102BB00088648093ED028091EC02813061F4109280
:102BC000EC028091ED028093BB008091BC0083FDFC
:102BD000F8CF85EC01C085EE8093BC008091120394
:102BE0008230E1F3809110038F3F31F08091100328
:102BF000803211F08091100310921403109235036B
:102C00001092130362E081E00E94241362E080E0EE
:102C10000E9424130E94010580913E03882341F005
:102C200060ED77E080E090E00E948B130E94BA068E
:102C30008FE0E6EEF3E0DF011D928A95E9F74FE0C1
:102C400050E0BF0184EE93E00E944D0E93E0292EE8
:102C5000312C24ED822E23E0922EA12CB12C30E0D9
:102C6000C32E30E0D32E0E9485090E94C513009127
:102C70006303109164032091650330916603DC01C6
:102C8000CB01801B910BA20BB30B0597A105B105DE
:102C900008F4F6C461E085E00E94F5120E94010587
:102CA00080915103811159C48091F403807F8093F6
:102CB000F40390911901992309F45DC02091360322
:102CC0008091E6039091E703A091E803B091E903B6
:102CD000222311F0906401C09F7B8093E6039093C0
:102CE000E703A093E803B093E903209137038091B1
:102CF000E6039091E703A091E803B091E903222352
:102D000011F0906801C09F778093E6039093E703EA
:102D1000A093E803B093E903209138038091E60380
:102D20009091E703A091E803B091E903222311F009
:102D3000A16001C0AE7F8093E6039093E703A09368
:102D4000E803B093E903209139038091E603909161
:102D5000E703A091E803B091E903222311F0A260F8
:102D600001C0AD7F8093E6039093E703A093E8034F
:102D7000B093E9033DC0909137039923A1F085609A
:102D80008093F40390913803992321F0807F86602B
:102D90008093F40380913903882351F18091F403E7
:102DA000807F846023C0909136039923A1F08160D5
:102DB0008093F40390913803992321F0807F8860F9
:102DC0008093F40380913903882391F08091F40378
:102DD000807F82600BC090913803992311F0876047
:102DE00005C090913903992319F083608093F4030F
:102DF00020913A038091E6039091E703A091E803C4
:102E0000B091E903222311F0816001C08E7F80938D
:102E1000E6039093E703A093E803B093E9032091BE
:102E20003B038091E6039091E703A091E803B09102
:102E3000E903222311F0826001C08D7F8093E603B5
:102E40009093E703A093E803B093E90320913C0338
:102E50008091E6039091E703A091E803B091E90324
:102E6000222311F0846001C08B7F8093E60390934E
:102E7000E703A093E803B093E90320913D03809119
:102E8000E6039091E703A091E803B091E9032223C0
:102E900011F0886001C0877F8093E6039093E70379
:102EA000A093E803B093E90320913E038091E603E9
:102EB0009091E703A091E803B091E903222311F078
:102EC000806101C08F7E8093E6039093E703A09317
:102ED000E803B093E90320913F038091E6039091CA
:102EE000E703A091E803B091E903222311F0806287
:102EF00001C08F7D8093E6039093E703A093E803DE
:102F0000B093E903209140038091E6039091E70399
:102F1000A091E803B091E903222311F0806401C07D
:102F20008F7B8093E6039093E703A093E803B0932D
:102F3000E903209141038091E6039091E703A0917A
:102F4000E803B091E903222311F0806801C08F7774
:102F50008093E6039093E703A093E803B093E9031B
:102F6000209142038091E6039091E703A091E8034A
:102F7000B091E903222311F0916001C09E7F8093FC
:102F8000E6039093E703A093E803B093E90320914D
:102F900043038091E6039091E703A091E803B09189
:102FA000E903222311F0926001C09D7F8093E60324
:102FB0009093E703A093E803B093E90320914403BF
:102FC0008091E6039091E703A091E803B091E903B3
:102FD000222311F0946001C09B7F8093E6039093BD
:102FE000E703A093E803B093E903209145038091A0
:102FF000E6039091E703A091E803B091E90322234F
:1030000011F0986001C0977F8093E6039093E703E7
:10301000A093E803B093E903809118018823A1F0FD
:1030200080E00E94CC12892B29F480E00E94A40841
:103030000E94D11381E00E94CC12892B29F481E0F7
:103040000E94A4080E94D11380913401882309F4BE
:1030500031C18BE10E946013EC018CE10E9460138E
:1030600020911A0130911B01FE01E21BF30B9F011D
:1030700040911C0150911D018C01041B150BE09027
:103080003201F0903301EE16FF061CF42E193F09B1
:103090000CC0882799278E199F09E817F9071CF497
:1030A0002E0D3F1D02C020E030E08091360140909F
:1030B0001E0150901F01A901330F660B770BE091A1
:1030C0002201F0912301882381F124E6420E511C54
:1030D000052C000C660877089A01AB012419350904
:1030E00046095709A4EBB0E00E94171D9F01245622
:1030F0003109032E000C440B550B241935094609E0
:1031000057090E94EA1C243B31058FEF48075807F6
:10311000D4F11216130614061506C4F1DA01C9011A
:103120008A559048AF4FBF4F2CC094E6490E511CB2
:10313000052C000C660877089A01AB0124193509A3
:1031400046095709ACE4BFEF0E94091D9F012456B0
:103150003109032E000C440B550B2419350946097F
:1031600057090E94EA1C57FD0EC02D34AFEF3A07F5
:10317000410551055CF4DA01C901865A9F47A1094E
:10318000B109EC0105C0CAE5D0E802C0C6EADFE734
:10319000E016F10624F498012E193F090DC0882786
:1031A00099278E199F090817190724F498012E0DE5
:1031B0003F1D02C020E030E08091370140902001A7
:1031C00050902101A901330F660B770BE091240188
:1031D000F0912501882389F1B4E64B0E511C052C92
:1031E000000C660877089A01AB01241935094609D5
:1031F0005709A4EBB0E00E94171DE456F1098F01B6
:10320000FF0F220B330BA901980124193509460938
:1032100057090E94EA1C243B3105EFEF4E075E0779
:10322000DCF11216130614061506CCF1DA01C901F9
:103230008A559048AF4FBF4F2DC024E6420E511C17
:10324000052C000C660877089A01AB012419350992
:1032500046095709ACE4BFEF0E94091DE456F10985
:103260008F01FF0F220B330BA90198012419350997
:10327000460957090E94EA1C57FD0EC02D348FEFF6
:103280003807410551055CF4DA01C901865A9F47A8
:10329000A109B1099C0105C02AE530E802C026EA6F
:1032A0003FE7D093EB03C093EA033093ED03209301
:1032B000EC0308C01092EB031092EA031092ED03A6
:1032C0001092EC0380913501882309F431C182E129
:1032D0000E946013EC0183E10E946013209126019B
:1032E00030912701DE01A21BB30B9D014091280103
:1032F000509129018C01041B150BE0903201F090D4
:103300003301EA16FB061CF42E193F090CC088276E
:1033100099278E199F09A817B9071CF42E0D3F1D78
:1033200002C020E030E08091380140902A015090A6
:103330002B01A901330F660B770BE0912E01F09161
:103340002F01882381F1B4E64B0E511C052C000C93
:10335000660877089A01AB0124193509460957090F
:10336000A4EBB0E00E94171D9F0124563109032EE3
:10337000000C440B550B24193509460957090E94C6
:10338000EA1C243B3105EFEF4E075E07D4F112161D
:10339000130614061506C4F1DA01C9018A559048CE
:1033A000AF4FBF4F2CC024E6420E511C052C000C21
:1033B000660877089A01AB012419350946095709AF
:1033C000ACE4BFEF0E94091D9F0124563109032E72
:1033D000000C440B550B24193509460957090E9466
:1033E000EA1C57FD0EC02D348FEF380741055105FB
:1033F0005CF4DA01C901865A9F47A109B109EC01C1
:1034000005C0CAE5D0E802C0C6EADFE7E016F1066B
:1034100024F498012E193F090DC0882799278E1989
:103420009F090817190724F498012E0D3F1D02C0AB
:1034300020E030E08091390140902C0150902D0126
:10344000A901330F660B770BE0913001F091310148
:10345000882389F194E6490E511C052C000C66085E
:1034600077089A01AB012419350946095709A4EBDD
:10347000B0E00E94171DE456F1098F01FF0F220BE7
:10348000330BA901980124193509460957090E94EF
:10349000EA1C243B3105AFEF4A075A07DCF112164C
:1034A000130614061506CCF1DA01C9018A559048B5
:1034B000AF4FBF4F2DC0B4E64B0E511C052C000C76
:1034C000660877089A01AB0124193509460957099E
:1034D000ACE4BFEF0E94091DE456F1098F01FF0F14
:1034E000220B330BA9019801241935094609570904
:1034F0000E94EA1C57FD0EC02D34EFEF3E07410538
:1035000051055CF4DA01C901865A9F47A109B10946
:103510009C0105C02AE530E802C026EA3FE7D093C7
:10352000EF03C093EE033093F1032093F00308C040
:103530001092EF031092EE031092F1031092F00339
:1035400080914C03811120C04FE050E066EE73E0A3
:1035500084EE93E00E944D0E17C00E94C5130091A7
:103560004D0310914E0320914F0330915003DC0125
:10357000CB01801B910BA20BB30B893E9340A1059D
:10358000B10510F01092510380914C03882309F487
:1035900069C080913603882319F081E00E94A40855
:1035A00080913703882319F080E00E94A40880915D
:1035B0003903882361F080911201282F30E02B35E8
:1035C000310514F4865F01C084E60E94D50880911D
:1035D0003803882349F0809112018A3010F08A5014
:1035E00001C080E00E94D50880913A03882329F029
:1035F00081E0809313010E94A30680913B038823FE
:1036000021F0109213010E94A30680913D038823AC
:1036100019F081E00E94C60880913C03882319F0CC
:1036200080E00E94C60880913E03882329F081E053
:10363000809315010E94A30680913F03882321F007
:10364000109215010E94A30680914203882319F06D
:1036500081E080931901809140038111109219013A
:103660000E94D11360E085E00E94F5120E94C5130C
:103670006093630370936403809365039093660380
:103680000E94C51300915F031091600320916103B4
:1036900030916203DC01CB01801B910BA20BB30BB9
:1036A000893C9105A105B105E8F087E00E94CC12A4
:1036B000892B21F481E080934C0302C010924C03CB
:1036C00080914C03882321F010924A0310924B03FF
:1036D0000E94C51360935F0370936003809361033E
:1036E000909362030E94C51300915B0310915C03E9
:1036F00020915D0330915E03DC01CB01801B910BB7
:10370000A20BB30B853F9140A105B10508F4ADC0F4
:1037100084E10E946013EC0184E10E946013C80FF1
:10372000D91F84E10E9460138C0F9D1FB1010E947C
:103730004D1D7093470360934603809117018823C2
:1037400009F446C088E10E946013EC0188E10E9400
:103750006013C80FD91F88E10E946013C80FD91FDA
:1037600088E10E9460138C0F9D1F9C013595279561
:10377000359527952431310538F0293E43E034074B
:1037800028F028EE33E002C024E130E0C901A0E0D7
:10379000B0E09C01AD012451310941095109A4E671
:1037A000B0E00E94091DA50194010E94EA1CC90114
:1037B00040910001509101018417950749F0253689
:1037C00008F024E6209316019093010180930001F4
:1037D00090914803209159038091540329134CC0C0
:1037E0009091490320915A03291346C0811114C0B6
:1037F00040915503509156036091570370915803BF
:103800004F5F5F4F6F4F7F4F409355035093560369
:10381000609357037093580340915503509156039A
:103820006091570370915803413B54406105710505
:10383000A0F1811110C081E08093540380911201A6
:103840008093530380E00E94D508809153038093B6
:1038500012010E94A3060E94C51360935B0370933C
:103860005C0380935D0390935E03C114D10409F45B
:10387000FAC90E940000F7C9909148039093590338
:103880009091490390935A03109255031092560356
:103890001092570310925803BFCF8823E1F2109281
:1038A0005403809153030E94D508D5CF10927E0314
:1038B00010927D0388EE93E0A0E0B0E080937F0358
:1038C00090938003A0938103B09382038CE891E0EE
:1038D00090937C0380937B038FEF9FEF90938803FB
:1038E000809387038EE991E09093E5038093E4034E
:1038F00080911004811113C010920B0410920A04DD
:103900008CE992E090930D0480930C0480E590E0A4
:1039100090930F0480930E0481E0809310048091B3
:10392000DC03811105C00E94641281E08093DC03F6
:10393000E091D603F091D703309739F48AE094E010
:103940009093D7038093D6030AC08081918100971A
:1039500011F0FC01FACF8AE094E0918380832091FA
:10396000D8033091D90380910E0490910F04820FF7
:10397000931F9093D9038093D8031092F803109269
:10398000F70388EE93E0A0E0B0E08093F903909312
:10399000FA03A093FB03B093FC0384EA91E09093B5
:1039A000F6038093F5030895F999FECF92BD81BD8A
:1039B000F89A992780B50895262FF999FECF1FBA56
:1039C00092BD81BD20BD0FB6F894FA9AF99A0FBE48
:1039D00001960895052E97FB1EF400940E94011D88
:1039E00057FD07D00E941C1D07FC03D04EF40C9419
:1039F000011D50954095309521953F4F4F4F5F4F9A
:103A0000089590958095709561957F4F8F4F9F4F4A
:103A100008950E943E1DA59F900DB49F900DA49FF8
:103A2000800D911D11240895B7FF0C94091D0E946B
:103A3000091D821B930B0895A1E21A2EAA1BBB1B22
:103A4000FD010DC0AA1FBB1FEE1FFF1FA217B3076A
:103A5000E407F50720F0A21BB30BE40BF50B661F80
:103A6000771F881F991F1A9469F760957095809544
:103A700090959B01AC01BD01CF010895A29FB001BB
:103A8000B39FC001A39F700D811D1124911DB29F92
:103A9000700D811D1124911D089597FB072E16F4BA
:103AA000009407D077FD09D00E94671D07FC05D060
:103AB0003EF4909581959F4F0895709561957F4F45
:103AC0000895EE0FFF1F0590F491E02D0994AA1BB5
:103AD000BB1B51E107C0AA1FBB1FA617B70710F0F9
:103AE000A61BB70B881F991F5A95A9F7809590952B
:103AF000BC01CD01089581E090E0F8940C94801D04
:043B0000F894FFCF67
:103B04006500050000000000000000000000000047
:103B140000006401010032000100FF01FF01D30035
:103B2400D3002B032B03FF01FF01D300D3002B038E
:103B34002B033200000001000100FFFFFFFF00E142
:103B440000000000000000C180810000000F000D93
:103B54000008000E0001000000030002000A000932
:103B64000004000500060007000C000B0041707201
:103B740032203230313931383032303900000000EF
:103B8400880C0B0DCB0CAF0C00000000480CF50D9D
:103B9400690C5E0C6E0C2F0E0B0E000000004D0E17
:103BA400000000002E0201025E02D501F901E501C8
:0C3BB400D6014F4B0046310046320000A5
:2070000055C000006EC000006CC000006AC0000068C0000066C0000064C0000062C0000043
:2070200060C000005EC00000F2C400005AC0000058C0000056C0000054C0000052C00000EE
:2070400050C0000078C000004CC000004AC0000048C0000046C0000044C0000042C00000BE
:2070600040C000003EC000003CC000003AC0000038C0000036C0000034C0000032C0000048
:2070800030C000002EC000002CC000002AC0000028C0000026C0000024C0000022C00000A8
:2070A00020C000001EC000001CC0000011241FBECFEFDAE0DEBFCDBF11E0A0E0B1E0E2E3BC
:2070C000FFE702C005900D92A83AB107D9F711E0A8EAB1E001C01D92AE3BB107E1F78FD30B
:2070E00026C78ECFF89410926F0010928100109285001092840081E085BF15BE47985D9AEB
:20710000289A0C94000008952091B2013091B3012F5F3F4F3093B3012093B201932F37FFA6
:2071200003C08EEF831B982F990F921710F447980895479A08951F920F920FB60F9211246E
:207140002F938F939F93EF93FF9310928500109284008091A8019091A901009741F00197D3
:207160009093A9018093A801892B09F45D9A8091AA019091AB01009741F001979093AB0126
:207180008093AA01892B09F4289AE0E0F0E0859194918F5F9F4F49F08091AC019091AD0151
:2071A00001969093AD018093AC01FF91EF919F918F912F910F900FBE0F901F90189584E0BC
:2071C0008093E9000DC08091E8008B778093E80003C08EB3882351F08091E80082FFF9CFBE
:2071E0008091E80085FFEFCF8091F1000895982F83E08093E9008091E80085FD0DC0809136
:20720000E8008E778093E80003C08EB3882369F08091E80080FFF9CF9093F1005D9884E6CB
:2072200090E09093A9018093A80108954F925F926F927F928F929F92AF92BF92CF92DF921E
:20724000EF92FF920F931F93CF93DF9384E08093E9008091E80082FF57C2289884E690E067
:207260009093AB018093AA01AADF182F853481F48CE49DE19093AD018093AC0107B600FC4B
:20728000FDCFF999FECF81E180935700E89503C0843519F494DF8DE00DC28C34E1F38035F9
:2072A000D1F3843721F484E4A2DF80E003C2813611F489E5FFC18134B1F481DF182F7FDFE3
:2072C00090E0880F991FAA2797FDA095BA2F312F330F20E0442737FD4095542F822B932B68
:2072E000A42BB52BB8C1803711F483E5E3C1833549F4C0E0D1E089917ADF21E0C730D20714
:20730000D1F7D9C1863521F481E371DF80E3D2C1833731F487E86BDF85E969DF8EE1CAC149
:207320008536B9F4E0E0F0E093E085E090935700E89507B600FCFDCF80935700E89507B65D
:2073400000FCFDCFE058FF4FA0E7E030FA0771F7A2CF823739F4E1E0F0E089E08093570024
:207360008491A8C1863439F4E0E0F0E089E08093570084919FC18E3439F4E3E0F0E089E0E5
:2073800080935700849196C1813539F4E2E0F0E089E08093570084918DC1823631F489E521
:2073A00026DF80E024DF80E885C1823419F0873609F0E5C01092AD011092AC0100DF082FE8
:2073C000FEDEF82EFCDE682E8554823008F071C1902F80E0CF2DD0E0C82BD92B10926F00B3
:2073E000173609F04BC081E180935700E895DD24CC24C3943FC0E090AE01F090AF010091CC
:20740000B0011091B101B6E46B16D9F4ED2DF0E0EE29FF29E4918E2FEADEDD2081F082E08D
:2074200090E0A0E0B0E0E80EF91E0A1F1B1FE092AE01F092AF010093B0011093B101DC2470
:2074400018C0D801C701B695A7959795879559D5CEDE82E090E0A0E0B0E0E80EF91E0A1FF2
:207460001B1FE092AE01F092AF010093B0011093B1012197209709F0BECF7DC08090AE01F5
:207480009090AF01A090B001B090B10196E4691609F05DC083E0F40180935700E89507B63E
:2074A00000FCFDCF54C0F6E46F1661F5772031F1E090AE01F090AF010091B0011091B1019E
:2074C0007EDED82ECC24852D90E08C299D29F7010C0140925700E895112482E090E0A0E08B
:2074E000B0E0E80EF91E0A1F1B1FE092AE01F092AF010093B0011093B10102C060DE582E1A
:20750000742423C0E090AE01F090AF010091B0011091B10116950795F794E79450DE682FFA
:20752000C701F7D48091AE019091AF01A091B001B091B1010296A11DB11D8093AE01909349
:20754000AF01A093B001B093B101219704C05524772444244394209709F0A5CF96E46916B6
:2075600041F485E0F40180935700E89507B600FCFDCF8DE03CDE82E080936F009CC0833492
:2075800071F40091AE011091AF0119DE90E021E0F8010C0120935700E89511247CCE8336C8
:2075A00019F5E090AE01F090AF010091B0011091B10105DEF701E16090E021E00C0120938C
:2075C0005700E895112482E090E0A0E0B0E0E80EF91E0A1F1B1FE092AE01F092AF0100936A
:2075E000B0011093B10157CE8D3661F4E091AE01F091AF0185E080935700E89507B600FCF2
:20760000FDCF49CE823551F4E091AE01F091AF0105911491812FEBDD802F4CC0843421F5FE
:20762000E090AE01F090AF010091B0011091B10116950795F794E794C2DD682FC70169D4DE
:207640008091AE019091AF01A091B001B091B1010296A11DB11D8093AE019093AF01A093D8
:20766000B001B093B10117CE843609F5E090AE01F090AF010091B0011091B101D801C70142
:20768000B695A795979587953CD4B1DD82E090E0A0E0B0E0E80EF91E0A1F1B1FE092AE010A
:2076A000F092AF010093B0011093B10104C08B3111F08FE39CDD83E08093E9009091E8002B
:2076C0008091E8008E778093E80095FF04C010C08EB38823C9F08091E80080FFF9CF809193
:2076E000E8008E778093E80003C08EB3882361F08091E80080FFF9CF84E08093E9008091F1
:20770000E8008B778093E800DF91CF911F910F91FF90EF90DF90CF90BF90AF909F908F90AC
:207720007F906F905F904F9008959091B601892F8F77813249F58091B7018032A1F081328A
:2077400019F5913A09F58091E800877F8093E8008DE091E067E070E00BD28091E8008B770B
:207760008093E8000895913279F48091E800877F8093E8008DE091E067E070E05DD2809192
:20778000E8008E778093E800089582E061EC42E0B5D083E061E842E1B1D084E060E842E1EF
:2077A000ADC084B7877F84BF88E10FB6F89480936000109260000FBE20E880E090E00FB63F
:2077C000F89420936100809361000FBE81E085BF92E095BF3F9A209A559AE1E6F0E02083A1
:2077E000108247985D9A289A109289008AEF8093880090936F0083E080938100F0C0409116
:20780000000850910108109201081092000894B714BE88E10FB6F8948093600010926000D5
:207820000FBE292F30E0F901E270F07091FD18C090FF05C0859194918F5F9F4F81F423FFFF
:207840000FC08091090190910A014817590741F0E0E0F0E0859194918F5F9F4F09F042DC64
:20786000A0DF78941092AD011092AC010CC0DEDC36D38091AC019091AD0181549F4110F00D
:207880001092140141DC80911401882381F78091E00081608093E00025DC80E090E0089598
:2078A000FA01923049F0933061F09130F9F485E191E022E130E01EC087E291E02EE330E04D
:2078C00019C0882329F485E691E024E030E012C0813029F489E691E022E230E00BC0823006
:2078E00029F48DE891E028E130E004C080E090E020E030E091838083C90108958093E9004E
:207900008091EB0081608093EB001092ED006093EC004093ED008091EE00881F8827881F62
:2079200008958091B60188238CF403C08EB38823B1F08091E80082FFF9CF8091E8008B772A
:207940008093E80008958EB3882349F08091E80080FFF9CF8091E8008E778093E800089594
:20796000EF92FF920F931F9345D04CD008ED10E0F80180818F77808380818068808380819B
:207980008F7D808319BC1EBA1092B40180EEE82EF12CF70180818B7F8083F8018081816052
:2079A000808380E060E042E0A9DFE1EEF0E080818E7F8083E2EEF0E0808181608083808144
:2079C00088608083F70180818E7F8083F8018081806180831F910F91FF90EF900895E7ED06
:2079E000F0E08081816080838AE482BF81E08093B501B6CFE8EDF0E080818E7F808310921C
:207A0000E20008951092DA001092E10008951F920F920FB60F9211242F933F934F935F93F6
:207A20006F937F938F939F93AF93BF93EF93FF938091DA0080FF1BC08091D80080FF17C0B2
:207A40008091DA008E7F8093DA008091D90080FF0BC080E189BD82E189BD09B400FEFDCF36
:207A600081E08EBB3BD203C019BC1EBA37D28091E10080FF17C08091E20080FF13C0809138
:207A8000E2008E7F8093E2008091E20080618093E2008091D80080628093D80019BC85E049
:207AA0008EBB1CD28091E10084FF2CC08091E20084FF28C080E189BD82E189BD09B400FEC5
:207AC000FDCF8091D8008F7D8093D8008091E1008F7E8093E1008091E2008F7E8093E20012
:207AE0008091E20081608093E2008091B401882331F48091E30087FD02C081E001C084E067
:207B00008EBBECD18091E10083FF21C08091E20083FF1DC08091E100877F8093E10082E06A
:207B20008EBB1092B4018091E1008E7F8093E1008091E2008E7F8093E2008091E2008061E9
:207B40008093E20080E060E042E0D8DEC7D1FF91EF91BF91AF919F918F917F916F915F9130
:207B60004F913F912F910F900FBE0F901F9018959C014091BC015091BD014617570718F49D
:207B8000F90190E044C06115710511F0AB01F8CF8091E8008E778093E80040E050E0F0CF0F
:207BA0008EB3882309F444C0853009F443C08091E80083FF02C081E008958091E80082FD70
:207BC00031C08091E80080FF22C08091F3009091F200782F60E0292F30E0262B372B07C07A
:207BE00081918093F100415050402F5F3F4F4115510519F02830310598F390E02830310566
:207C000009F491E08091E8008E778093E8004115510531F6992321F605C08EB3882341F075
:207C2000853041F08091E80082FFF7CF80E0089582E0089583E008959C016115710529F47C
:207C40008091E8008B778093E800F90126C08EB3882391F1853091F18091E80083FF02C06C
:207C600081E008958091E80082FFF1CF06C08091F10081936150704059F02091F300809191
:207C8000F200322F20E090E0822B932B892B79F78091E8008B778093E80061157105B9F601
:207CA00005C08EB3882341F0853041F08091E80080FFF7CF80E0089582E0089583E00895C2
:207CC0000F931F93DF93CF9300D0CDB7DEB7E6EBF1E08091F100819381E0EE3BF807C9F792
:207CE00024DD8091E80083FFE4C08091B6019091B701953009F46DC0963040F4913081F1A7
:207D0000913070F0933009F0D4C02AC0983009F4A3C0993009F4B2C0963009F0CAC07CC023
:207D2000803809F4C6C0823809F0C3C08091BA0187708093E9008091EB001092E9002091DB
:207D4000E800277F2093E80090E025E0969587952A95E1F781708093F1001092F10087C0D8
:207D6000882319F0823009F0A4C08F71823009F0A0C08091B801882331F52091BA01277097
:207D800009F497C02093E9008091EB0080FF1BC0933021F48091EB00806213C08091EB0018
:207DA00080618093EB0081E090E002C0880F991F2A95E2F78093EA001092EA008091EB00E5
:207DC00088608093EB001092E9008091E800877F51C0882309F06DC01091B8011F770FB79B
:207DE000F8948091E800877F8093E8009ADD8091E80080FFFCCF8091E3008078812B809398
:207E0000E30080688093E300112311F482E001C083E08EBB0FBF4DC08058823008F049C033
:207E20008091B8019091B9016091BA01AE014F5F5F4F36DDBC01009709F43BC08091E8008E
:207E4000877F8093E80089819A8192DE8091E8008B778093E8002DC0803859F58091E800AA
:207E6000877F8093E8008091B4018093F1008091E8008E778093E80054DD1BC08823C9F4CA
:207E80009091B8019230A8F48091E800877F8093E8009093B40145DD8091B401882331F420
:207EA0008091E30087FD02C081E001C084E08EBB6CDC8091E80083FF0AC08091EB0080624E
:207EC0008093EB008091E800877F8093E8000F900F90CF91DF911F910F91089508951F9360
:207EE0008EB3882361F01091E9001092E9008091E80083FF01C0E4DE17701093E9001F916F
:207F00000895F999FECF92BD81BDF89A992780B50895262FF999FECF1FBA92BD81BD20BDBD
:207F20000FB6F894FA9AF99A0FBE01960895F894FFCF4341544552494E4100777700080031
:207F40000000000000080112011001020000084123360001000201000109023E00020100FF
:207F600080320904000001020201000524001001042402040524060001070582030800FF0C
:207F800009040100020A000000070504021000010705830210000104030904220341007216
:207FA000006400750069006E006F0020004C0065006F006E006100720064006F0000001836
:1A7FC00003410072006400750069006E006F0020004C004C004300000000D7
:00000001FF
